:1000000015C1000044C1000042C1000040C1000011
:100010003EC100003CC100003AC1000038C10000F0
:1000200036C100000C94C4080C94C4080C94C40895
:100030002EC100002CC100002AC100000C945F08F2
:1000400026C1000024C1000022C1000020C1000020
:100050001EC100001CC100001AC100003AC7000008
:1000600016C100000C94180A0C94EF0910C100008E
:100070000EC100000CC100000AC1000008C1000050
:1000800006C1000004C1000002C1000000C1000060
:10009000FEC00000FCC00000FAC00000F8C0000074
:1000A000F6C00000F4C00000F2C00000F0C0000084
:1000B000EEC00000ECC00000EAC00000E8C0000094
:1000C000E6C00000E4C00000E2C00000E0C00000A4
:1000D000DEC00000DCC00000DAC00000D8C00000B4
:1000E000D6C00000B001B301A201A601AA01EA0135
:1000F000B701BB01C101C501C901CF01D301D701BE
:10010000EA01DD01E101E5010000200023002600F5
:1001100029002C002F00320000010000030106011D
:10012000090100002100240027002A002D003000D2
:10013000330001010000040107010A010000220050
:10014000250028002B002E003100340002010000A1
:10015000050108010B010505050507050808080844
:10016000020202020A0A080804040404010101014F
:10017000010101010303030303030303040707074A
:100180000C0C0C0C0C0C0C0C0202020206060606EF
:10019000060606060B0B0B0B0B0B0B0B01021020BC
:1001A00020080810204010204080020102010804AD
:1001B0000201010204081020408080402010080441
:1001C000020180040201804020100804020108049A
:1001D00002010102040810204080010204081020DE
:1001E000408000000A0B02090C0D0E0807030401F1
:1001F00000000000000000000000000000000000FF
:1002000000000000000000000000000000001211CB
:1002100010000000000000000000000000000000CE
:100220000000000000000000730EC50B11241FBE6B
:10023000CFEFD1E2DEBFCDBF00E00CBF23E0A2EBE9
:10024000B2E001C01D92AD3FB207E1F712E0A0E0BD
:10025000B2E0E8E8F3E200E00BBF02C007900D92C5
:10026000A23BB107D9F711E0C5E1D1E000E006C03B
:1002700021970109802FFE010E94720FC431D1071E
:1002800080E00807A9F70E94040C0C94B311B8CEC3
:1002900080E090E0892B21F00E947F09811125C028
:1002A00080E090E0892B41F080E090E0892B21F004
:1002B0000E94000081111CC080E090E0892B41F079
:1002C00080E090E0892B21F00E940000811113C092
:1002D00080E090E0892BA1F080E090E0892B81F014
:1002E0000E94000081110AC008950E940000D8CF2A
:1002F0000E940000E1CF0E940000EACF0C940000B1
:100300000895362F90E0FC01EE51FE4F4491FC0120
:10031000E456FE4F2491FC01EA5AFE4F9491992332
:1003200009F46BC0442309F455C050E0FA01319739
:10033000E231F10508F04EC08827EE58FF4F8F4F8D
:100340000C94720F809180008F7707C0809180009D
:100350008F7D03C080918000877F809380003AC0AA
:1003600084B58F7702C084B58F7D84BD33C0809102
:10037000B0008F7703C08091B0008F7D8093B00074
:1003800029C0809190008F7707C0809190008F7D69
:1003900003C080919000877F809390001BC0809164
:1003A000A0008F7707C08091A0008F7D03C080914F
:1003B000A000877F8093A0000DC0809120018F77DF
:1003C00007C0809120018F7D03C080912001877F2D
:1003D00080932001E92FF0E0EE0FFF1FE45CFE4F59
:1003E000A591B4918FB7F894EC91311103C0209589
:1003F0002E2301C02E2B2C938FBF08953FB7F89466
:100400008091040390910503A0910603B091070326
:1004100026B5A89B05C02F3F19F00196A11DB11D5F
:100420003FBFBA2FA92F982F8827820F911DA11D9A
:10043000B11DBC01CD0142E0660F771F881F991FD7
:100440004A95D1F708956115710521F06130710564
:1004500009F00895DC01ED91FC910280F381E02D1B
:1004600019942091FD023091FE022817390771F48A
:100470009091FB028091FC02981741F0E091FB0201
:10048000F0E0EE54FD4F808190E008958FEF9FEFF4
:10049000089508951F93CF93DF93DC015C962D910F
:1004A0003C915D972115310539F481E090E0139678
:1004B0009C938E9312973DC05196ED91FC9152976B
:1004C00050969C915097892F80951FB75E964C91BE
:1004D0005E9741FB772770F941FD6095F894408164
:1004E000772311F0492B01C048234083E90121976C
:1004F000F1F748E0508160FF02C0592B01C058233A
:100500005083E9012197F1F76695415099F77723D8
:1005100021F090818923808303C08081982B908370
:100520001FBF5C968D919C915D970197F1F721E03B
:1005300030E0C901DF91CF911F9108952091FD0214
:100540003091FE022817390771F48091FC02209146
:10055000FB0290E0805C9F4F821B910960E470E099
:100560000C945F0F089580E090E008952091FD02C3
:100570003091FE0228173907B9F49091FB0280915F
:10058000FC02981789F0E091FB02F0E0EE54FD4F79
:1005900080812091FB0230E02F5F3F4F2F73332784
:1005A0002093FB0290E008958FEF9FEF0895089548
:1005B00080E090E008950F931F93CF93DF93EC01B9
:1005C0008B016E817F816115710551F0CE01F801BB
:1005D00019951816190624F00E80DF81C02DF1CF71
:1005E000CE01DF91CF911F910F9108954F925F92AD
:1005F0006F927F928F929F92AF92BF92CF92DF9233
:10060000EF92FF920F931F93CF93DF93DC0112962B
:100610002D913C911397223031050CF472C05B018F
:100620006C012C01B4E04B0E511C7201D701CD912D
:10063000DC912097D1F3B501CE01BDDF4C01FC0167
:10064000068117810115110559F4E414F50469F7C1
:10065000D60117969C938E9316971C961C9251C0A8
:10066000B501C801A8DFFC0166807780D401179628
:100670001C921E92169717821682B801CE01F501C0
:100680001995181619068CF0D701CD93DC937E01CD
:10069000B6E0EB0EF11C0E80DF81C02D209769F7CC
:1006A000F801D7010D931C931FC0F701118300833C
:1006B0007801F6E0EF0EF11CD80116960D911C9111
:1006C000179701151105C9F6F701D183C0838E81F3
:1006D0009F81009711F0EC01FACF7F826E827E013C
:1006E000F6E0EF0EF11CA2CF86819781009711F002
:1006F000FC01FACF778266827F0186E0E80EF11C6A
:1007000095CFDF91CF911F910F91FF90EF90DF90E8
:10071000CF90BF90AF909F908F907F906F905F90A1
:100720004F900895DC011496ED91FC9115971C965D
:100730008C911C97882361F01A962D913C911B9700
:10074000621773072CF01896ED91FC9119970AC067
:1007500020E030E007C03097C9F00680F781E02D37
:100760002F5F3F4F26173707B4F32617370771F46B
:1007700081E01C968C931C971B963C932E931A97A2
:100780001996FC93EE931897CF01089580E090E0BE
:100790000895FC018281938108950E949F11CF9357
:1007A000DF93FC01C081D181209739F1EE85FF856F
:1007B0003097C9F08AE092E0918380838091FD02B6
:1007C0009091FE028E179F0759F4A389B4899C91DA
:1007D0008589809589238C931092FE021092FD02E8
:1007E000CF010E942310CE01069607D7CE0105D770
:1007F000CE01DF91CF910C942310DF91CF9108951A
:100800000F931F93CF93DF9300D000D0CDB7DEB707
:100810008C01D801ED91FC910190F081E02DC8018F
:1008200019951816190674F4D801ED91FC910684F7
:10083000F785E02DB801CE0101961995CE010196FC
:10084000DCD6E7CF26960FB6F894DEBF0FBECDBF3D
:10085000DF91CF911F910F910895CF93DF9377FD93
:100860000CC0FC01228133816217730734F4EA0162
:1008700059DFBE01A3D681E001C080E0DF91CF91B6
:100880000895EF92FF920F931F93CF93DF93EC01A4
:100890007B0188E090E00E948E0F8C0188E0F801D7
:1008A00011928A95E9F760E872E0C801D7D6B701DE
:1008B000C80184D6F801178216828C819D81892B0C
:1008C00029F0EE81FF811783068302C01D830C830C
:1008D0001F830E838A819B8101969B838A831C865A
:1008E00081E0DF91CF911F910F91FF90EF900895DC
:1008F000CF92DF92EF92FF920F931F93CF93DF93EC
:1009000000D000D0CDB7DEB78C016B01DC011296B0
:100910008D919C911397892B91F4ED91FC91E4803A
:10092000F580CE01019692D6BE016F5F7F4FC80160
:10093000F7011995182FCE0101965FD623C088E0E4
:1009400090E00E948E0F7C0188E0D7011D928A956D
:10095000E9F760E872E0C70181D6F80184819581EA
:10096000D70117969C938E931697B601C70126D68A
:10097000F801F582E48282819381019693838283D8
:10098000148611E0812F26960FB6F894DEBF0FBEB5
:10099000CDBFDF91CF911F910F91FF90EF90DF902E
:1009A000CF900895AF92BF92CF92DF92EF92FF92D5
:1009B0000F931F93CF93DF9300D000D0CDB7DEB756
:1009C0008C016B015A01DC0112968D919C91139759
:1009D000681779072CF0ED91FC91E480F58007C051
:1009E000672BA1F4D801ED91FC91E680F780B50169
:1009F000CE0101962BD6BE016F5F7F4FC801F70174
:100A00001995182FCE010196F8D529C088E090E0FD
:100A10000E948E0F7C0188E0D7011D928A95E9F72C
:100A200060E872E0C7011AD6B60161507109C801C9
:100A300079DE6C01B501C701C1D5F60186819781C8
:100A4000D70117969C938E931697F782E682F8014A
:100A500082819381019693838283148611E0812F92
:100A600026960FB6F894DEBF0FBECDBFDF91CF91B3
:100A70001F910F91FF90EF90DF90CF90BF90AF90BC
:100A80000895CF93DF93EC01CB01BA014BDE0097C1
:100A900021F0BC01CE01DAD504C060E872E0CE01DD
:100AA000DDD5CE01DF91CF910895AF92BF92CF9265
:100AB000DF92EF92FF920F931F93CF93DF9300D0BB
:100AC00000D0CDB7DEB77C018B01FB016281738161
:100AD0001616170624F060E872E0C0D547C0F8018A
:100AE00014866130710511F162507109C8011ADE76
:100AF0006C01FC0166817781CE010196A7D5F601D4
:100B0000A680B780A114B10429F0C50176D5C5012E
:100B10000E942310F60117821682F801D782C6823E
:100B20008281938101979383828318C0F801648145
:100B30007581CE0101968AD5F801C480D580C11493
:100B4000D10429F0C60159D5C6010E942310F8012D
:100B5000158214821782168213821282BE016F5F81
:100B60007F4FC7014ED5CE01019647D5C7012696C6
:100B70000FB6F894DEBF0FBECDBFDF91CF911F91AE
:100B80000F91FF90EF90DF90CF90BF90AF900895BE
:100B9000AF92BF92CF92DF92EF92FF920F931F938B
:100BA000CF93DF9300D000D0CDB7DEB77C018B01AF
:100BB000DB0112968D919C911397181619062CF053
:100BC00060E872E0C7014AD539C0019779F1FB01AD
:100BD00064817581DB011696AD90BC901797CE01AC
:100BE000019634D5F801C480D580C114D10429F010
:100BF000C60103D5C6010E942310D8011596BC92E8
:100C0000AE92149712968D919C911397019713961B
:100C10009C938E9312971C961C92BE016F5F7F4F20
:100C2000C701EFD4CE010196E8D408C0DB01ED91F5
:100C3000FC910484F585E02DC7011995C70126961E
:100C40000FB6F894DEBF0FBECDBFDF91CF911F91DD
:100C50000F91FF90EF90DF90CF90BF90AF900895ED
:100C6000AF92BF92CF92DF92EF92FF920F931F93BA
:100C7000CF93DF9300D000D0CDB7DEB77C018B01DE
:100C800057FD08C0DB0112968D919C911397481770
:100C900059072CF060E872E0C701E0D447C0411565
:100CA000510539F4DB01ED91FC910684F785E02DC7
:100CB0000AC001974817590751F4DB01ED91FC91E7
:100CC0000484F585E02DB801C70119952FC0BA013C
:100CD00061507109C80126DD5C01FC01C680D78026
:100CE000B601CE010196B2D4D5011696ED91FC91D4
:100CF00017978681978117969C938E931697C114A8
:100D0000D10429F0C60179D4C6010E942310F8014C
:100D1000828193810197938382831486BE016F5FE2
:100D20007F4FC7016ED4CE01019667D4C7012696C6
:100D30000FB6F894DEBF0FBECDBFDF91CF911F91EC
:100D40000F91FF90EF90DF90CF90BF90AF900895FC
:100D5000FC01848DDF01A80FB11DA35ABF4F2C9158
:100D6000848D90E001968F739927848FA689B78927
:100D70002C93A089B1898C9180648C93938D848D00
:100D8000981306C00288F389E02D80818F7D8083CF
:100D90000895CF93DF9390E0FC01E456FE4F249139
:100DA000FC01EA5AFE4F8491882361F190E0880F9C
:100DB000991FFC01EE5DFE4FC591D491FC01E45CEE
:100DC000FE4FA591B491611109C09FB7F894888135
:100DD000209582238883EC912E230BC0623061F42E
:100DE0009FB7F8943881822F809583238883EC9174
:100DF0002E2B2C939FBF06C08FB7F894E8812E2B23
:100E000028838FBFDF91CF9108951F93CF93DF93F6
:100E1000EC016AE672E080E193E0A5D41A8161E01A
:100E2000812FB7DF60E0812F6CDA60E08E8169DAB4
:100E30001C8161E0812FADDF60E0812F62DA61E02B
:100E40008885DF91CF911F915CCA8F929F92AF925C
:100E5000BF92CF92DF92EF92FF926B017C01CEDACC
:100E60004B015C01C114D104E104F104E9F0C6DADC
:100E7000DC01CB0188199909AA09BB09883E934076
:100E8000A105B10578F321E0C21AD108E108F10803
:100E900088EE880E83E0981EA11CB11CC114D104F9
:100EA000E104F10421F7DECFFF90EF90DF90CF90C7
:100EB000BF90AF909F908F9008952FB7F894609156
:100EC00000037091010380910203909103032FBFEF
:100ED00008951F920F920FB60F9211242F933F93F4
:100EE0008F939F93AF93BF938091000390910103E1
:100EF000A0910203B09103033091FF0223E0230F7E
:100F00002D3720F40196A11DB11D05C026E8230F41
:100F10000296A11DB11D2093FF02809300039093C0
:100F20000103A0930203B093030380910403909103
:100F30000503A0910603B09107030196A11DB11D01
:100F40008093040390930503A0930603B0930703D3
:100F5000BF91AF919F918F913F912F910F900FBEB5
:100F60000F901F9018950F931F93CF93DF938C01D1
:100F700060E872E073D360E872E0C80106966ED351
:100F8000F801178616868FE190E0C8D7EC011B8226
:100F90001A8288EE93E0A0E0B0E08C839D83AE835C
:100FA000BF838AE092E0998388831F8A1E8A198E04
:100FB000188E1B8E1A8E1D8E1C8E6E8D6E7F6D7F11
:100FC0006E8F6695617081E068278BE09AD961E049
:100FD0008BE0DFDEE7EAF1E0E491E88BE1E6F1E0C7
:100FE000E491F0E0EE0FFF1FE45CFE4F85919491D9
:100FF0009A8B898B60E08AE0CCDE8E8D81FD03C008
:1010000061E08AE07ED98AE08C87E6EAF1E0E4914B
:10101000ED87E0E6F1E0E491F0E0EE0FFF1FE85F1E
:10102000FE4F859194919F878E87F801D787C68759
:101030008DE991E09D8F8C8F2DEB30E03F8B2E8BD7
:101040002BE931E0398F288F2CE231E03B8F2A8F5A
:10105000209168002160209368002BE630E03C8BF3
:101060002B8B20E12D8B0197F1F78A8D9B8D892B9E
:1010700009F1E091FD02F091FE02EC17FD07D1F0BD
:10108000309739F0A389B4899C918589809589230B
:101090008C938E8D8E7F8E8F1092FC021092FB02AD
:1010A000D093FE02C093FD02EB89FC8990818D896B
:1010B000892B8083DF91CF911F910F9108951F920B
:1010C0000F920FB60F9211240BB60F922F933F93EE
:1010D0004F935F936F937F938F939F93AF93BF9340
:1010E000EF93FF938091F9029091FA028093B200FE
:1010F0008091F5029091F602A091F702B091F8026A
:101100000196A11DB11D8093F5029093F602A09364
:10111000F702B093F8028091F5029091F602A09147
:10112000F702B091F8028091F40281111AC081E0B7
:101130008093F4028091F5029091F602A091F7025B
:10114000B091F8028093F5029093F602A093F70213
:10115000B093F802E091F202F091F3021995109227
:10116000F402FF91EF91BF91AF919F918F917F9189
:101170006F915F914F913F912F910F900BBE0F9008
:101180000FBE0F901F9018951F920F920FB60F92DF
:1011900011240BB60F922F933F934F935F936F934E
:1011A0007F938F939F93AF93BF93EF93FF93E091C0
:1011B000FD02F091FE02309709F451C0968DA6858C
:1011C000B785858591FF04C09C91892329F447C088
:1011D0009C91892309F043C0A389B4899C91858996
:1011E000809589238C93868997890197F1F7608D83
:1011F000718DA685B785558538E020E0CB01019734
:10120000F1F7822F90E095958795282F4C914523F3
:1012100009F02068315091F7868D81FD20958091ED
:10122000FC0290E001968F7399273091FB023817EA
:1012300049F0A091FC02B0E0AE54BD4F2C938093D6
:10124000FC0203C0868D8160868F828D938D01970D
:10125000F1F7A389B4899C918589892B8C93FF919F
:10126000EF91BF91AF919F918F917F916F915F911E
:101270004F913F912F910F900BBE0F900FBE0F908B
:101280001F901895FC01538D448D252F30E0842F3D
:1012900090E0821B930B541710F0CF96089501979E
:1012A0000895FC01918D828D981761F0828DDF0188
:1012B000A80FB11D5D968C91928D9F5F9F73928F49
:1012C00090E008958FEF9FEF0895FC01918D828D3E
:1012D000981731F0828DE80FF11D858D90E008950B
:1012E0008FEF9FEF0895FC01918D228D892F90E063
:1012F000805C9F4F821B91098F739927089580E12D
:1013000093E0F1DF21E0892B09F420E0822F08959A
:10131000EF92FF920F931F93CF93DF93EC0181E045
:10132000888F9B8D8C8D981305C0E889F989808101
:1013300085FD23C0F62E0B8D10E00F5F1F4F0F733E
:101340001127E02E8C8DE8120BC00FB607FCFACFE8
:10135000E889F989808185FFF5CFCE01F9DCF2CFEC
:101360008B8DFE01E80FF11DE35AFF4FF0820B8FCA
:10137000EA89FB898081806207C0EE89FF896083EA
:10138000E889F98980818064808381E090E0DF9141
:10139000CF911F910F91FF90EF900895CF93DF931E
:1013A000EC01888D8823C1F0EA89FB89808185FD65
:1013B00005C0A889B9898C9186FD0EC00FB607FCBF
:1013C000F5CF808185FFF2CFA889B9898C9185FFFF
:1013D000EDCFCE01BDDCE8CFDF91CF9108951F9214
:1013E0000F920FB60F9211240BB60F922F933F93CB
:1013F0004F935F936F937F938F939F93AF93BF931D
:10140000EF93FF9380E193E0A3DCFF91EF91BF9115
:10141000AF919F918F917F916F915F914F913F918C
:101420002F910F900BBE0F900FBE0F901F9018952D
:101430001F920F920FB60F9211240BB60F922F939B
:101440008F939F93EF93FF93E0912003F0912103FB
:101450008081E0912603F091270382FD12C09081E4
:10146000809129038F5F8F7320912A03821751F097
:10147000E0912903F0E0E05FFC4F958F8093290312
:1014800001C08081FF91EF919F918F912F910F90DB
:101490000BBE0F900FBE0F901F901895CF92DF924A
:1014A000EF92FF920F931F93CF93DF936C017A011A
:1014B0008B01C0E0D0E0CE15DF0589F0D8016D9139
:1014C0008D01D601ED91FC910190F081E02DC601D6
:1014D0001995892B11F47E0102C02196ECCFC7012A
:1014E000DF91CF911F910F91FF90EF90DF90CF9000
:1014F0000895EF92FF920F931F93CF93DF93EC0128
:101500007B018A0188819981009729F02A813B819A
:1015100024173507E8F4B8016F5F7F4F2CD600978A
:1015200059F0998388831B830A832C813D81232B67
:1015300079F4FC0110820CC088819981009709F030
:1015400082D5198218821D821C821B821A8206C0D3
:101550001D830C83B70188819981FED6CE01DF916E
:10156000CF911F910F91FF90EF900895E0E1F3E08C
:10157000A089B18982E08C93A485B5851C92A6854B
:10158000B7858FEC8C93108EA489B58986E08C93F7
:10159000A289B3898C9180618C93A289B3898C9143
:1015A00088608C93A289B3898C9180688C9302881F
:1015B000F389E02D80818F7D80830895CF93DF9321
:1015C000EC01FB0186179707A1F06081718161151D
:1015D000710521F0448155818CDF0BC08881998190
:1015E000009709F030D5198218821D821C821B8257
:1015F0001A82CE01DF91CF910895FC018081918103
:1016000022C5DC01FB0111961C921E9213961C92BE
:101610001E92129715961C921E92149780819181AA
:1016200011969C938E938281938113969C938E93B3
:1016300012978481958115969C938E9314971182AD
:10164000108213821282158214820895FC01118285
:1016500010821382128215821482B0CFFC01118293
:10166000108213821282158214826115710549F06D
:10167000FB0101900020E9F73197AF01461B570BA2
:1016800038CF08956115710579F0FB0101900020B4
:10169000E9F73197AF01461B570BDC01ED91FC9147
:1016A0000280F381E02D199480E090E00895CF93BB
:1016B000DF93FC01448155816081718180E193E079
:1016C000EDDEEC016EE772E080E193E0DBDF8C0F92
:1016D0009D1FDF91CF9108954F925F926F927F92FD
:1016E000EF92FF920F931F93CF93DF93CDB7DEB7A7
:1016F000A1970FB6F894DEBF0FBECDBF7C01FA01F3
:10170000CB0119A2223008F42AE08E010F5D1F4F91
:10171000422E512C612C712CBF01A3019201ADD33B
:10172000F901CA01015011096A3014F4605D01C069
:10173000695CD8016C93232B242B252B69F7B80106
:10174000C701A0DFA1960FB6F894DEBF0FBECDBFD4
:10175000DF91CF911F910F91FF90EF907F906F904D
:101760005F904F9008950F931F93CF93DF93EC01F9
:1017700089DF8C016EE772E0CE0184DF800F911F5C
:10178000DF91CF911F910F9108950F931F93CF93E6
:10179000DF93C091F503D091F603209709F10881FA
:1017A00019810115110541F0F8018281938100979B
:1017B00009F049D4C80147D48A819B81009709F078
:1017C00042D40C811D810115110529F0C8010E9428
:1017D000CF03C80138D4CE0108960FDFCE0133D431
:1017E000C091F703D091F803209749F0CE010E94F1
:1017F000CF03CE01DF91CF911F910F9124C4DF91D0
:10180000CF911F910F910895CF93DF93CDB7DEB79E
:1018100063970FB6F894DEBF0FBECDBF789484B542
:10182000826084BD84B5816084BD85B5826085BDDC
:1018300085B5816085BD80916E00816080936E006A
:10184000109281008091810082608093810080915C
:10185000810081608093810080918000816080930D
:1018600080008091B10084608093B1008091B000CD
:1018700081608093B000809191008260809391009C
:1018800080919100816080939100809190008160AF
:10189000809390008091A10082608093A10080914C
:1018A000A10081608093A1008091A000816080935D
:1018B000A00080912101826080932101809121010B
:1018C00081608093210180912001816080932001BB
:1018D00080917A00846080937A0080917A0082609F
:1018E00080937A0080917A00816080937A00809161
:1018F0007A00806880937A001092C1001092F10300
:101900001092F2031092F3031092F4031092AF03BB
:101910001092B0031092B1031092B20368EB7BE017
:1019200080E090E092DA80E193E09093F00380937E
:10193000EF031CDEC2DA6093AF037093B0038093B1
:10194000B1039093B2036FE672E08091EF03909140
:10195000F00398DE6AE070E080E090E076DA81E003
:101960008093C30303DE61E872E080E193E0FBDE75
:101970008CE192E09A8389831E821D8218861F82E1
:101980001C821B821A8619861C861B861D866DE8A2
:1019900072E0CE010E9662DEBE01625F7F4FCE0125
:1019A00001960E944104CE010E9627DE6FE872E098
:1019B000CE010E9653DEBE01625F7F4FCE010196CF
:1019C0000E944104CE010E9618DE61E972E0CE015C
:1019D0000E9644DEBE01625F7F4FCE0101960E94EB
:1019E0004104CE010E9609DE63E972E0CE010E9647
:1019F00035DEBE01625F7F4FCE0101960E94410439
:101A0000CE010E96FADD65E972E0CE010E9626DE75
:101A1000BE01625F7F4FCE0101960E944104CE015C
:101A20000E96EBDDE12CF12C8B819C81E816F906FA
:101A30008CF4A701BE016F5F7F4FCE010E9621D8B7
:101A4000CE010E9634DECE010E96D7DD2FEFE21AD0
:101A5000F20AEACF40E050E0BE016F5F7F4FCE0157
:101A60000E96FED8CE010E96C8DDE12CF12C8B81AE
:101A70009C81E816F90694F4A701BE016F5F7F4FC1
:101A8000CE010E960E944105CE010E9610DECE01CB
:101A90000E96B3DD3FEFE31AF30AE9CF8CE192E053
:101AA0009A838983ED80FE80E114F10451F0F701FF
:101AB000868197819E838D83C7019FDDC701C3D235
:101AC000F1CF84EF882E99249394A12CB12CF5D9D1
:101AD000672B682B692B39F4F0D9623071058105C9
:101AE000910508F4F3C0E9D960930C0370930D03DA
:101AF00080930E0390930F03C0900803D0900903C6
:101B0000E0900A03F0900B036C157D058E059F0590
:101B100040F4609308037093090380930A03909341
:101B20000B03C0900803D0900903E0900A03F090E3
:101B30000B039B01AC012C193D094E095F0969019A
:101B40007A013AEFC316D104E104F10408F4BEC0EF
:101B5000609308037093090380930A0390930B0327
:101B60008092BB039092BC03A092BD03B092BE03CF
:101B70001092BF031092C0031092C1031092C203CF
:101B80008091B3039091B403A091B503B091B603D3
:101B90008093B7039093B803A093B903B093BA03AB
:101BA0008CD96093B3037093B4038093B50390937F
:101BB000B60383D96093AF037093B0038093B103EE
:101BC0009093B2037AD96B017C0167E972E080914E
:101BD000EF039091F00356DD2AE041E050E060E031
:101BE00070E08091EF039091F00376DD6EE972E092
:101BF0008091EF039091F00345DD2AE0B701A60143
:101C00008091EF039091F00367DD60EA72E08091CC
:101C1000EF039091F00336DD8091B3039091B4030C
:101C2000A091B503B091B603B701A601481B590BAB
:101C30006A0B7B0B2AE08091EF039091F0034CDD5F
:101C400060EA72E08091EF039091F0031BDD409118
:101C5000B3035091B4036091B5037091B6038091C2
:101C6000B7039091B803A091B903B091BA03481B90
:101C7000590B6A0B7B0B2AE08091EF039091F003E4
:101C80002BDD62EA72E08091EF039091F003FADCC1
:101C900014D9AB01BC012AE08091EF039091F003CD
:101CA0001BDD64EA72E08091EF039091F0035BDD4D
:101CB00065E070E080E090E0C8D8FFD86093B3039F
:101CC0007093B4038093B5039093B6036BEA72E00C
:101CD00080E193E048DD68EB7BE080E090E0B5D800
:101CE0000E944801F4CECF92DF92EF92FF920F93C1
:101CF0001F93CF93DF93E0E1F3E01382128288EE2B
:101D000093E0A0E0B0E084839583A683B78386E365
:101D100092E09183808385EC90E09587848784ECC2
:101D200090E09787868780EC90E0918B808B81ECA8
:101D300090E0938B828B82EC90E0958B848B86EC89
:101D400090E0978B868B118E128E138E148EEDEA97
:101D5000F3E0168217821086118612861386148687
:101D6000158616861786108A118A128A138A148A93
:101D7000158A85EFE82E83E0F82EF7011182108294
:101D8000138212828EE090E0C9D0EC011982188291
:101D90001B821A821D821C8260E872E008965EDC5B
:101DA0008AE090E0BBD08C0186E692E0F801918356
:101DB000808386E090E09383828395E0C92ED12CC6
:101DC000D582C48287E090E09783868384E090E0A8
:101DD0009187808761E086E00E94C90661E0F80192
:101DE00086810E94C90661E0F80184810E94C906CB
:101DF00061E0F80180850E94C90684E090E08ED001
:101E0000FC011182108213830283998388831F82CD
:101E10001E8284E090E082D021E030E0FC0131833A
:101E20002083D382C2829B838A8382E090E076D033
:101E30008C0180E190E072D06C0195D8F801D182DC
:101E4000C0821D830C83F701D183C08382E090E0C0
:101E500065D0EC0180E190E061D08C0184D81983D9
:101E60000883F701D383C283DF91CF911F910F9134
:101E7000FF90EF90DF90CF900895A1E21A2EAA1B59
:101E8000BB1BFD010DC0AA1FBB1FEE1FFF1FA2172A
:101E9000B307E407F50720F0A21BB30BE40BF50B27
:101EA000661F771F881F991F1A9469F760957095B0
:101EB000809590959B01AC01BD01CF01089597FBE2
:101EC000072E16F4009406D077FD08D013D007FC37
:101ED00005D03EF4909581959F4F0895709561953A
:101EE0007F4F0895EE0FFF1F881F8BBF0790F6915D
:101EF000E02D1994AA1BBB1B51E107C0AA1FBB1FF1
:101F0000A617B70710F0A61BB70B881F991F5A9585
:101F1000A9F780959095BC01CD010895CF93DF93EB
:101F20008230910510F482E090E0E091FB03F091A3
:101F3000FC0320E030E0C0E0D0E0309711F14081B8
:101F4000518148175907C0F04817590761F4828139
:101F50009381209719F09B838A832BC09093FC0375
:101F60008093FB0326C02115310519F04217530752
:101F700018F49A01BE01DF01EF010280F381E02D28
:101F8000DCCF2115310509F1281B390B243031052F
:101F900090F412968D919C9113976115710521F023
:101FA000FB019383828304C09093FC038093FB0323
:101FB000FD01329644C0FD01E20FF31F819391931E
:101FC000225031092D933C933AC02091F90330916E
:101FD000FA03232B41F42091020230910302309343
:101FE000FA032093F9032091000230910102211598
:101FF000310541F42DB73EB74091040250910502DE
:10200000241B350BE091F903F091FA03E217F30773
:10201000A0F42E1B3F0B2817390778F0AC014E5F58
:102020005F4F2417350748F04E0F5F1F5093FA0398
:102030004093F9038193919302C0E0E0F0E0CF0177
:10204000DF91CF9108950F931F93CF93DF93009764
:1020500009F48CC0FC013297138212820091FB03B9
:102060001091FC030115110581F420813181820F4B
:10207000931F2091F9033091FA032817390779F556
:10208000F093FA03E093F90371C0D80140E050E007
:10209000AE17BF0750F412962D913C911397AD01E6
:1020A0002115310509F1D901F3CF9D01DA013383FF
:1020B000228360817181860F971F8217930769F4CD
:1020C000EC0128813981260F371F2E5F3F4F318366
:1020D00020838A819B8193838283452B29F4F0930B
:1020E000FC03E093FB0342C01396FC93EE9312971C
:1020F000ED01499159919E01240F351FE217F30715
:1021000071F480819181840F951F029611969C93A2
:102110008E938281938113969C938E931297E0E025
:10212000F0E0D80112968D919C911397009719F0C9
:10213000F8018C01F6CF8D919C9198012E5F3F4F55
:10214000820F931F2091F9033091FA032817390762
:1021500069F4309729F41092FC031092FB0302C03B
:10216000138212821093FA030093F903DF91CF9147
:102170001F910F9108956F927F928F929F92AF92CD
:10218000BF92CF92DF92EF92FF920F931F93CF9364
:10219000DF93EC01009781F4CB01DF91CF911F9188
:1021A0000F91FF90EF90DF90CF90BF90AF909F90F6
:1021B0008F907F906F90B2CEFC01E60FF71F9C01CD
:1021C00022503109E217F30708F4A8C0D9010D9194
:1021D0001C91119706171707A8F00530110508F490
:1021E0009BC0C80104978617970708F495C0025052
:1021F0001109061B170B019311936D937C93CF016B
:1022000022DF8AC05B01A01AB10A4C01800E911E28
:10221000A091FB03B091FC0340E050E0E12CF12CD5
:10222000109709F44AC0A815B905D1F56D907C90B6
:102230001197630182E0C80ED11CCA14DB0480F13F
:10224000A3014A195B096A0182E0C80ED11C1296EB
:10225000BC9012971396AC91B5E0CB16D10440F028
:10226000B282A38351834083D9016D937C930AC0CA
:102270000E5F1F4FC301800F911FF901918380836F
:10228000EB2DFA2FE114F10431F0D7011396FC93F2
:10229000EE93129741C0F093FC03E093FB033CC024
:1022A0008D919C9111974817590708F4AC017D0155
:1022B00012960D90BC91A02DB3CF8091F90390910F
:1022C000FA0388159905E1F446175707C8F4809179
:1022D000000290910102009741F48DB79EB74091A2
:1022E000040250910502841B950BE817F907B0F41E
:1022F000F093FA03E093F903F901718360830CC052
:10230000CB010CDE7C01009749F0A801BE011BD077
:10231000CE0199DEC70104C0CE0102C080E090E08A
:10232000DF91CF911F910F91FF90EF90DF90CF90B1
:10233000BF90AF909F908F907F906F90089581E0B5
:1023400090E0F89410C0FB01DC0102C001900D92F6
:1023500041505040D8F70895FB01DC0101900D92E7
:102360000020E1F7089511E0C5E1D1E000E005C0EB
:10237000802FFE01B7DD2196011DC631D10780E017
:082380000807B1F7F894FFCF44
:102388000000FD038000000000004A024E0AD80247
:1023980049029E02B602310200000000C903D204BD
:1023A800410478042D0430065505C805410500048C
:1023B800F6020000000088094E0A4209CE09730996
:1023C8005109650900000000CD034E0AD802D70262
:1023D800CD03CD03CD0300000000CD034E0AD80283
:1023E800D702000000002302050753746F700056DF
:1023F8004D4450565F317C315F564D4450560D0A5E
:1024080000496E69745375636365737300300031F6
:1024180000320033003400564D4450455F003A32D4
:102428003A007C005F564D445045007265616479FE
:022438000000A2
:00000001FF
