:100000000C9436000C945E000C945E000C945E0020
:100010000C945E000C945E000C945E000C945E00E8
:100020000C945E000C94E5030C945E000C945E004E
:100030000C945E000C945E000C945E000C945E00C8
:100040000C949B030C945E000C9469030C94430382
:100050000C945E000C945E000C945E000C945E00A8
:100060000C945E000C945E0046048B0611241FBEA7
:10007000CFEFD8E0DEBFCDBF22E0A6E5B1E001C002
:100080001D92A736B207E1F711E0A0E0B1E0E0E988
:10009000F2E102C005900D92A635B107D9F710E044
:1000A000C5E3D0E004C02197FE010E942007C433BD
:1000B000D107C9F70E94CE040C943B090C940000B0
:1000C000E0E7F1E0A089B18982E08C93A485B58551
:1000D0001C92A685B7858FEC8C93108EA489B58968
:1000E00086E08C93A289B3898C9180618C93A289DC
:1000F000B3898C9188608C93A289B3898C91806834
:100100008C930288F389E02D80818F7D8083089510
:10011000CF92DF92EF92FF920F931F93CF93DF93D3
:100120006C017A018B01C0E0D0E0CE15DF0589F0CB
:10013000D8016D918D01D601ED91FC910190F08176
:10014000E02DC6010995892B11F47E0102C021968C
:10015000ECCFC701DF91CF911F910F91FF90EF90EE
:10016000DF90CF900895089580E090E00895FC011D
:10017000538D448D252F30E0842F90E0821B930B0C
:10018000541710F0CF96089501970895FC01918DB2
:10019000828D981761F0828DDF01A80FB11D5D96E9
:1001A0008C91928D9F5F9F73928F90E008958FEF57
:1001B0009FEF0895FC01918D828D981731F0828D0B
:1001C000E80FF11D858D90E008958FEF9FEF089562
:1001D000FC01918D228D892F90E0805C9F4F821BC6
:1001E00091098F739927089580E791E00E94E800B4
:1001F00021E0892B09F420E0822F0895FC01848DF1
:10020000DF01A80FB11DA35ABF4F2C91848D90E040
:1002100001968F739927848FA689B7892C93A0891B
:10022000B1898C9180648C93938D848D981306C0D2
:100230000288F389E02D80818F7D80830895EF927D
:10024000FF920F931F93CF93DF93EC0181E0888F90
:100250009B8D8C8D981305C0E889F989808185FD77
:1002600024C0F62E0B8D10E00F5F1F4F0F73112768
:10027000E02E8C8DE8120CC00FB607FCFACFE8898F
:10028000F989808185FFF5CFCE010E94FE00F1CF74
:100290008B8DFE01E80FF11DE35AFF4FF0820B8FAB
:1002A000EA89FB898081806207C0EE89FF896083CB
:1002B000E889F98980818064808381E090E0DF9122
:1002C000CF911F910F91FF90EF900895CF93DF93FF
:1002D000EC01888D8823C9F0EA89FB89808185FD3E
:1002E00005C0A889B9898C9186FD0FC00FB607FC9F
:1002F000F5CF808185FFF2CFA889B9898C9185FFE0
:10030000EDCFCE010E94FE00E7CFDF91CF9108959F
:1003100080E090E0892B29F00E94F40081110C9478
:10032000000008953FB7F8948091640190916501B1
:10033000A0916601B091670126B5A89B05C02F3F2B
:1003400019F00196A11DB11D3FBFBA2FA92F982FFB
:100350008827820F911DA11DB11DBC01CD0142E076
:10036000660F771F881F991F4A95D1F708958F92BE
:100370009F92AF92BF92CF92DF92EF92FF926B016A
:100380007C010E9492014B015C01C114D104E10483
:10039000F104F1F00E949201DC01CB018819990966
:1003A000AA09BB09883E9340A105B10570F321E07D
:1003B000C21AD108E108F10888EE880E83E0981E81
:1003C000A11CB11CC114D104E104F10419F7DDCF63
:1003D000FF90EF90DF90CF90BF90AF909F908F9065
:1003E00008952FB7F8946091600170916101809138
:1003F0006201909163012FBF08950895EF92FF92DB
:100400000F931F93CF93DF93EC017B018A018881C7
:100410009981009729F02A813B8124173507F8F448
:10042000B8016F5F7F4F0E945308009759F099837E
:1004300088831B830A832C813D81232B81F4FC015B
:1004400010820DC088819981009711F00E94BB072E
:10045000198218821D821C821B821A8207C01D838A
:100460000C83B701888199810E943409CE01DF9104
:10047000CF911F910F91FF90EF900895FC01118291
:10048000108213821282158214826115710551F057
:10049000FB0101900020E9F73197AF01461B570B94
:1004A0000C94FE0108956115710579F0FB0101902E
:1004B0000020E9F73197AF01461B570BDC01ED91A6
:1004C000FC910280F381E02D099480E090E0089592
:1004D0004F925F926F927F92EF92FF920F931F93D2
:1004E000CF93DF93CDB7DEB7A1970FB6F894DEBFF9
:1004F0000FBECDBF7C01FA01CB0119A2223008F456
:100500002AE08E010F5D1F4F422E512C612C712C61
:10051000BF01A30192010E94C706F901CA0101505F
:1005200011096A3014F4605D01C0695CD8016C93F4
:10053000232B242B252B61F7B801C7010E945302FE
:10054000A1960FB6F894DEBF0FBECDBFDF91CF915D
:100550001F910F91FF90EF907F906F905F904F9061
:1005600008950F931F93CF93DF93EC010E945302E2
:100570008C016EE371E0CE010E945302800F911F47
:10058000DF91CF911F910F910895CF92DF92EF925B
:10059000FF920F931F93CF93DF9300D000D000D032
:1005A000CDB7DEB7E0915902F0915A02C280D380F4
:1005B0001A8219821C821B821E821D82DC016D91AF
:1005C0007C9111976115710541F014964D915C91E4
:1005D0001597CE0101960E94FE018D819E81E980D2
:1005E000FA80892B89F06EE171E0C7010E942B0926
:1005F000892B51F060E271E0C7010E942B09892B21
:1006000019F400E010E002C004E010E0C7010E940D
:10061000BB07C016D10659F4E0915902F0915A0275
:1006200082819381049749F462E271E002C06CE236
:1006300071E080E791E00E94B102E0915902F091EF
:100640005A0260817181EF2B69F0E0915702F091BD
:10065000580282819381DC01ED91FC910190F0813F
:10066000E02D099526960FB6F894DEBF0FBECDBFDC
:10067000DF91CF911F910F91FF90EF90DF90CF907E
:1006800008950E941D091F920F920FB60F92112418
:100690002F933F934F935F936F937F938F939F938A
:1006A000AF93BF93EF93FF9380E791E00E94FE002A
:1006B000FF91EF91BF91AF919F918F917F916F913A
:1006C0005F914F913F912F910F900FBE0F901F9010
:1006D00018951F920F920FB60F9211242F938F939C
:1006E0009F93EF93FF93E0918001F09181018081CE
:1006F000E0918601F091870182FD12C09081809186
:1007000089018F5F8F7320918A01821751F0E091E8
:100710008901F0E0E059FE4F958F8093890101C077
:100720008081FF91EF919F918F912F910F900FBE3C
:100730000F901F9018951F920F920FB60F921124D1
:100740002F933F938F939F93AF93BF9380916001BB
:1007500090916101A0916201B091630130915F01BC
:1007600023E0230F2D3720F40196A11DB11D05C0F4
:1007700026E8230F0296A11DB11D20935F018093EF
:10078000600190936101A0936201B0936301809135
:10079000640190916501A0916601B0916701019695
:1007A000A11DB11D8093640190936501A093660122
:1007B000B0936701BF91AF919F918F913F912F911E
:1007C0000F900FBE0F901F9018951F920F920FB6AB
:1007D0000F9211242F933F934F935F936F937F93C7
:1007E0008F939F93AF93BF93EF93FF9380915D019E
:1007F00090915E018093B2008091590190915A01CD
:10080000A0915B01B0915C010196A11DB11D809387
:10081000590190935A01A0935B01B0935C018091C0
:10082000590190915A01A0915B01B0915C018091B6
:10083000580181111AC081E08093580180915901BB
:1008400090915A01A0915B01B0915C018093590194
:1008500090935A01A0935B01B0935C01E091560123
:10086000F0915701099510925801FF91EF91BF91B6
:10087000AF919F918F917F916F915F914F913F9138
:100880002F910F900FBE0F901F9018950F931F93ED
:10089000CF93DF93E0E7F1E01382128288EE93E0DA
:1008A000A0E0B0E084839583A683B7838AE091E0DB
:1008B0009183808385EC90E09587848784EC90E039
:1008C0009787868780EC90E0918B808B81EC90E01D
:1008D000938B828B82EC90E0958B848B86EC90E0FE
:1008E000978B868B118E128E138E148EEDE0F2E0B4
:1008F0001682178210861186128613861486158634
:1009000016861786108A118A128A138A148A158A03
:10091000C5E5D2E0198218821B821A821D821C82D0
:1009200060E471E08DE592E00E943E0286E090E096
:100930000E942607FC011382128215821482118202
:1009400010829983888382E090E00E9426078C01C0
:100950008CE191E0F8019183808384E090E00E9433
:100960002607FC0111821082138302839B838A83F2
:100970001F821E8284E090E00E94260721E030E082
:10098000FC013183208324E030E0338322839D8384
:100990008C83DF91CF911F910F910895CF93DF93B7
:1009A00000D000D000D0CDB7DEB7789484B5826097
:1009B00084BD84B5816084BD85B5826085BD85B503
:1009C000816085BD80916E00816080936E00109281
:1009D00081008091810082608093810080918100FC
:1009E000816080938100809180008160809380008D
:1009F0008091B10084608093B1008091B0008160EB
:100A00008093B00080917A00846080937A00809116
:100A10007A00826080937A0080917A00816080936E
:100A20007A0080917A00806880937A001092C100E9
:100A300010925102109252021092530210925402DC
:100A400010920F02109210021092110210921202D4
:100A500068EB7BE080E090E00E94B70180E791E0E6
:100A60009093500280934F020E9460000E94F10117
:100A700060930F0270931002809311029093120200
:100A80006FE271E080914F02909150020E945302F8
:100A90006AE070E080E090E00E94B70181E080931E
:100AA00023020E94600084EF882E99249394A12C45
:100AB000B12C0E94F101672B682B692B41F40E9435
:100AC000F101623071058105910508F405C10E94AC
:100AD000F10160936C0170936D0180936E019093AE
:100AE0006F01C0906801D0906901E0906A01F090B8
:100AF0006B016C157D058E059F0540F460936801C0
:100B00007093690180936A0190936B01C0906801B2
:100B1000D0906901E0906A01F0906B019B01AC01FB
:100B20002C193D094E095F0969017A013AEFC31694
:100B3000D104E104F10408F4CFC06093680170931C
:100B4000690180936A0190936B0180921B029092DD
:100B50001C02A0921D02B0921E0210921F0210925F
:100B60002002109221021092220280911302909191
:100B70001402A0911502B09116028093170290936F
:100B80001802A0931902B0931A020E94F101609317
:100B900013027093140280931502909316020E9420
:100BA000F10160930F0270931002809311029093F1
:100BB00012020E94F1016B017C0161E471E08091FD
:100BC0004F02909150020E9453022AE041E050E00F
:100BD00060E070E080914F02909150020E946802A4
:100BE00068E471E080914F02909150020E9453029C
:100BF0002AE0B701A60180914F02909150020E9415
:100C000068026AE471E080914F02909150020E9464
:100C100053028091130290911402A0911502B09199
:100C20001602B701A601481B590B6A0B7B0B2AE081
:100C300080914F02909150020E9468026AE471E034
:100C400080914F02909150020E94530240911302F2
:100C50005091140260911502709116028091170252
:100C600090911802A0911902B0911A02481B590BD9
:100C70006A0B7B0B2AE080914F02909150020E94F8
:100C800068026CE471E080914F02909150020E94E2
:100C900053020E94F101AB01BC012AE080914F0296
:100CA000909150020E9468026EE471E080914F02C0
:100CB000909150020E94B10265E070E080E090E007
:100CC0000E94B7010E94F101609313027093140215
:100CD00080931502909316026EE171E0CE010196A9
:100CE0000E943E02CE0101960E94C50289819A812E
:100CF0000E94BB0760E271E0CE0101960E943E02B5
:100D0000CE0101960E94C50289819A810E94BB078B
:100D10000E948801CECE0F931F93CF93DF93009153
:100D2000550210915602F801C481D581CD2B71F086
:100D3000F80184819581FC01C481D581009711F06F
:100D40000E94BB07F801D583C483F0CFC09157023E
:100D5000D0915802209749F08A819B81009711F029
:100D60000E94BB07CE010E94BB078091590290915F
:100D70005A02009711F00E94BB0780915D0290918A
:100D80005E02DF91CF911F910F910C94BB07A1E2FE
:100D90001A2EAA1BBB1BFD010DC0AA1FBB1FEE1FF5
:100DA000FF1FA217B307E407F50720F0A21BB30B40
:100DB000E40BF50B661F771F881F991F1A9469F7BC
:100DC00060957095809590959B01AC01BD01CF0118
:100DD00008952F923F924F925F926F927F928F92DF
:100DE0009F92AF92BF92CF92DF92EF92FF920F93BA
:100DF0001F93CF93DF93CDB7DEB7CA1BDB0B0FB6C4
:100E0000F894DEBF0FBECDBF09942A883988488880
:100E10005F846E847D848C849B84AA84B984C88416
:100E2000DF80EE80FD800C811B81AA81B981CE0F0D
:100E3000D11D0FB6F894DEBF0FBECDBFED010895F2
:100E4000EE0FFF1F0590F491E02D0994CF93DF93EF
:100E50008230910510F482E090E0E0916502F0911B
:100E6000660220E030E0C0E0D0E0309711F1408130
:100E7000518148175907C0F04817590761F482811A
:100E80009381209719F09B838A832BC090936602ED
:100E90008093650226C02115310519F042175307CA
:100EA00018F49A01BE01DF01EF010280F381E02D09
:100EB000DCCF2115310509F1281B390B2430310510
:100EC00090F412968D919C9113976115710521F004
:100ED000FB019383828304C0909366028093650232
:100EE000FD01329644C0FD01E20FF31F81939193FF
:100EF000225031092D933C933AC0209163023091E6
:100F00006402232B41F420910201309103013093BC
:100F100064022093630220910001309101012115A8
:100F2000310541F42DB73EB74091040150910501C0
:100F3000241B350BE0916302F0916402E217F30782
:100F4000A0F42E1B3F0B2817390778F0AC014E5F39
:100F50005F4F2417350748F04E0F5F1F5093640210
:100F6000409363028193919302C0E0E0F0E0CF01EF
:100F7000DF91CF9108950F931F93CF93DF93009745
:100F800009F48CC0FC013297138212820091650231
:100F9000109166020115110581F420813181820FC3
:100FA000931F20916302309164022817390779F565
:100FB000F0936402E093630271C0D80140E050E016
:100FC000AE17BF0750F412962D913C911397AD01C7
:100FD0002115310509F1D901F3CF9D01DA013383E0
:100FE000228360817181860F971F8217930769F4AE
:100FF000EC0128813981260F371F2E5F3F4F318347
:1010000020838A819B8193838283452B29F4F093EB
:101010006602E093650242C01396FC93EE9312972A
:10102000ED01499159919E01240F351FE217F307F5
:1010300071F480819181840F951F029611969C9383
:101040008E938281938113969C938E931297E0E006
:10105000F0E0D80112968D919C911397009719F0AA
:10106000F8018C01F6CF8D919C9198012E5F3F4F36
:10107000820F931F20916302309164022817390771
:1010800069F4309729F4109266021092650202C04A
:10109000138212821093640200936302DF91CF9156
:1010A0001F910F910895A0E0B0E0E9E5F8E00C94FD
:1010B000ED06EC01009721F4CB010E942607B8C091
:1010C000FC01E60FF71F9C0122503109E217F307DC
:1010D00008F4ACC0D9010D911C91119706171707A0
:1010E000B0F00530110508F49FC0C80104978617B9
:1010F000970708F499C002501109061B170B0193BA
:1011000011936D937C93CF010E94BB078DC05B014F
:10111000A01AB10A4C01800E911EA0916502B091F7
:10112000660240E050E0E12CF12C109709F44AC02F
:10113000A815B905D1F56D907C901197630182E0F7
:10114000C80ED11CCA14DB0480F1A3014A195B0943
:101150006A0182E0C80ED11C1296BC9012971396B9
:10116000AC91B5E0CB16D10440F0B282A383518399
:101170004083D9016D937C930AC00E5F1F4FC3015A
:10118000800F911FF90191838083EB2DFA2FE114D9
:10119000F10431F0D7011396FC93EE93129744C0FB
:1011A000F0936602E09365023FC08D919C91119788
:1011B0004817590708F4AC017D0112960D90BC91B7
:1011C000A02DB3CF80916302909164028815990598
:1011D000E1F446175707C8F480910001909101018E
:1011E000009741F48DB79EB74091040150910501DD
:1011F000841B950BE817F907C8F4F0936402E09399
:101200006302F901718360830FC0CB010E9426073E
:101210007C01009759F0A801BE010E942209CE016D
:101220000E94BB07C70104C0CE0102C080E090E06D
:10123000CDB7DEB7EEE00C94090781E090E0F894BA
:101240000C943B09FB01DC0102C001900D9241505E
:101250005040D8F70895FB01DC018D910190801971
:101260000110D9F3990B0895FB01DC0101900D9257
:101270000020E1F7089510E0C5E3D0E004C0FE01CE
:101280000E9420072196C633D107C9F7F894FFCFF3
:10129000000067028000000000001F018800B70006
:1012A0006601E800C600DA0000000000FD01410010
:1012B00042004E45575F494E505554004E4F005620
:1012C0004D4450565F317C315F564D4450560D0AA7
:1012D00000564D4450455F003A323A007C005F565C
:0612E0004D4450450000E2
:107E0000112484B714BE81FFF0D085E080938100F7
:107E100082E08093C00088E18093C10086E0809377
:107E2000C20080E18093C4008EE0C9D0259A86E02C
:107E300020E33CEF91E0309385002093840096BBD3
:107E4000B09BFECF1D9AA8958150A9F7CC24DD24C4
:107E500088248394B5E0AB2EA1E19A2EF3E0BF2EE7
:107E6000A2D0813461F49FD0082FAFD0023811F036
:107E7000013811F484E001C083E08DD089C08234E0
:107E800011F484E103C0853419F485E0A6D080C0E4
:107E9000853579F488D0E82EFF2485D0082F10E0AE
:107EA000102F00270E291F29000F111F8ED06801E7
:107EB0006FC0863521F484E090D080E0DECF843638
:107EC00009F040C070D06FD0082F6DD080E0C81688
:107ED00080E7D80618F4F601B7BEE895C0E0D1E017
:107EE00062D089930C17E1F7F0E0CF16F0E7DF06D8
:107EF00018F0F601B7BEE89568D007B600FCFDCFD4
:107F0000A601A0E0B1E02C9130E011968C91119780
:107F100090E0982F8827822B932B1296FA010C0160
:107F200087BEE89511244E5F5F4FF1E0A038BF0790
:107F300051F7F601A7BEE89507B600FCFDCF97BE46
:107F4000E89526C08437B1F42ED02DD0F82E2BD052
:107F50003CD0F601EF2C8F010F5F1F4F84911BD097
:107F6000EA94F801C1F70894C11CD11CFA94CF0C13
:107F7000D11C0EC0853739F428D08EE10CD085E9AC
:107F80000AD08FE07ACF813511F488E018D01DD067
:107F900080E101D065CF982F8091C00085FFFCCF94
:107FA0009093C60008958091C00087FFFCCF809118
:107FB000C00084FD01C0A8958091C6000895E0E648
:107FC000F0E098E1908380830895EDDF803219F02E
:107FD00088E0F5DFFFCF84E1DECF1F93182FE3DFCA
:107FE0001150E9F7F2DF1F91089580E0E8DFEE27F6
:047FF000FF270994CA
:027FFE00040479
:0400000300007E007B
:00000001FF